:0400000026EF00F0F7
:06000800068257EF00F034
:100018000680D8CF01F0E8CF02F0E0CF03F0F2A4D9
:1000280018EF00F01AEF00F01EEF00F039EC00F0C6
:1000380013EF00F003C0E0FF02C0E8FF01C0D8FFE3
:10004800069010004AEF00F0EF0E956E000E8C6ED1
:10005800040ED56EDC0ED66E0B0ED76ED08EF194D4
:10006800F28AF28CF28ED58E12008C50D8B43FEF03
:1000780000F042EF00F0010E43EF00F0000E8C6E2E
:10008800DC0ED66E0B0ED76EF2941200056A046A67
:1000980006900692000151EF00F028EC00F053EFB3
:0A00A80000F026EF00F006921100B0
:020000040020DA
:08000000FFFFFFFFFFFFFFFF00
:020000040030CA
:0E0000001D03727CF98B91FFFFC0FFE0FF40F3
:00000001FF
