:0400000052EF00F0CB
:0600080057825BEF23F0BC
:100018005780D8CF05F0E8CF06F0E0CF07F0A4A2CC
:1000280018EF00F01AEF00F01EEF00F0BEEC24F01D
:1000380013EF00F0B7A023EF00F025EF00F029EF51
:1000480000F082EC23F013EF00F0F2A42EEF00F0A2
:1000580030EF00F034EF00F063EC24F013EF00F021
:100068009EA039EF00F03BEF00F03FEF00F00CEC02
:1000780025F013EF00F0A1A244EF00F046EF00F0E6
:100088004AEF00F008EC25F013EF00F007C0E0FF9E
:1000980006C0E8FF05C0D8FF5790100067EF21F0B1
:1010000000420F3332280C01060025322E316600D3
:1010100025312E326600494E46004E414E00696E23
:1010200066006E616E006C660000000E00017B6F52
:10103000000E7A6F3DC08CF03EC08DF03FC08EF048
:1010400040C08FF08FBF29EF08F027EF08F03FEF87
:1010500008F0000E7B6F010E7A6F8CC008F08DC017
:1010600009F08EC00AF08FC00BF02BEC24F008C002
:101070008CF009C08DF00AC08EF00BC08FF0000E0E
:101080000001936F000E926FC2C07EF0C3C07FF06C
:101090007A517B11D8A44FEF08F051EF08F058EFC8
:1010A00008F051A456EF08F058EF08F072EF08F07E
:1010B0007A517B11D8A45FEF08F061EF08F067EF79
:1010C00008F0000E616F2B0E606F6BEF08F0000EE2
:1010D000616F2D0E606F60C00CF1924B932B7E07F9
:1010E000D8A07F078CC008F08DC009F08EC00AF030
:1010F0008FC00BF0EAEC1CF008040910D8A483EFB1
:1011000008F085EF08F0DCEF08F0BF0E426EFF0E2E
:10111000436E4150446E456A425044264350452236
:1011200045500AE11A0E445CD8A099EF08F09CEFF4
:1011300008F0010E9DEF08F0000E0001626F636B76
:1011400062516311D8B4A7EF08F0A9EF08F0B7EF28
:1011500008F00C0E9225086E010E9321096E160EF2
:101160000A6E100E0B6EA8EC22F0C3EF08F00C0E06
:101170009225086E010E9321096E1E0E0A6E100E46
:101180000B6EA8EC22F00001FD0E7E27FF0E7F23E0
:101190003BC018F03CC019F00C0E1A6E010E1B6E0D
:1011A0007EC01CF07FC01DF0A1EC1EF018C03BF00B
:1011B00019C03CF041EF0EF08CC008F08DC009F072
:1011C0008EC00AF08FC00BF0EAEC1CF0085009103A
:1011D000D8A4EDEF08F0EFEF08F02FEF09F0BF0E05
:1011E000426EFF0E436E4150446E456A42504426A3
:1011F0004350452245500AE11A0E445CD8A003EF43
:1012000009F006EF09F0010E07EF09F0000E0001EA
:10121000646F656B64516511D8B411EF09F013EF79
:1012200009F021EF09F00C0E9225086E010E9321B2
:10123000096E1A0E0A6E100E0B6EA8EC22F0C3EFA8
:1012400008F00C0E9225086E010E9321096E220EF5
:101250000A6E100E0B6EA8EC22F0C3EF08F0000E21
:101260000001946F000E956F800E966F3F0E976F82
:10127000000E916F000E906F8CC008F08DC009F0C9
:101280008EC00AF08FC00BF0000E0C6E000E0D6EBB
:10129000000E0E6E000E0F6EC5EC20F0D8B053EFAE
:1012A00009F055EF09F0D8EF09F074EF09F094C098
:1012B00016F095C017F096C018F097C019F0000E00
:1012C0001A6E000E1B6E200E1C6E410E1D6E72EC0F
:1012D00013F016C094F017C095F018C096F019C01E
:1012E00097F00001904B912B8CC02FF08DC030F007
:1012F0008EC031F08FC032F0000E1A6E000E1B6EE1
:10130000200E1C6E410E1D6E94C016F095C017F095
:1013100096C018F097C019F072EC13F016C033F0B5
:1013200017C034F018C035F019C036F0E8EC1BF0E7
:10133000D8B09DEF09F09FEF09F057EF09F0BFEF2C
:1013400009F094C008F095C009F096C00AF097C063
:101350000BF0000E0C6E000E0D6E200E0E6E410E88
:101360000F6E87EC15F008C094F009C095F00AC024
:1013700096F00BC097F000019007D8A091078CC0A1
:101380002FF08DC030F08EC031F08FC032F094C09D
:1013900033F095C034F096C035F097C036F0E8ECE5
:1013A0001BF0D8A0D6EF09F0D8EF09F0A1EF09F0B3
:1013B00041C00EF00F6A78EC22F00E500001816FF0
:1013C00081C080F0670E8119D8A4E9EF09F0EBEF36
:1013D00009F011EF0AF04F505010D8A4F2EF09F0C5
:1013E000F4EF09F0F8EF09F0000E506E010E4F6EA9
:1013F00050BE05EF0AF0505006E14F04D8B003EF9D
:101400000AF005EF0AF00BEF0AF0000E7D6F060EF2
:101410007C6F1AEF0AF04FC07CF050C07DF01AEFDD
:101420000AF050BE16EF0AF018EF0AF005EF0AF0C6
:101430000BEF0AF0670E8119D8A421EF0AF023EF11
:101440000AF052EF0AF091AF31EF0AF0FC0E905D16
:10145000FF0E9159D8A02FEF0AF031EF0AF050EFAC
:101460000AF0FF0E426EFF0E436E7CC044F07DC05A
:1014700045F042504426435045229051445C45502B
:10148000800A466E9151800A4658D8A04AEF0AF069
:101490004CEF0AF050EF0AF0660E806F52EF0AF040
:1014A000650E806F7CC072F07DC073F0670E81198D
:1014B000D8A45DEF0AF05FEF0AF06FEF0AF0660E56
:1014C0008019D8A466EF0AF068EF0AF071EF0AF00D
:1014D00091BF6FEF0AF06DEF0AF071EF0AF0724BF7
:1014E000732B660E8019D8A478EF0AF07AEF0AF011
:1014F0009AEF0AF091BF81EF0AF07FEF0AF08DEFCB
:101500000AF0000E946F000E956F800E966F3F0EDE
:10151000976F000E916F000E906F670E8119D8B40F
:1015200094EF0AF096EF0AF09AEF0AF090517227C2
:1015300091517323000E8B6F000E8A6F8CC082F066
:101540008DC083F08EC084F08FC085F094C074F09D
:1015500095C075F096C076F097C077F02BEF0BF042
:1015600082C008F083C009F084C00AF085C00BF087
:1015700094C00CF095C00DF096C00EF097C00FF01F
:1015800087EC15F008C021F009C022F00AC023F052
:101590000BC024F054EC17F021C086F022C087F075
:1015A00023C088F024C089F086C008F087C009F005
:1015B00088C00AF089C00BF065EC1BF008C078F019
:1015C00009C079F082C02FF083C030F084C031F0C0
:1015D00085C032F094C01AF095C01BF096C01CF084
:1015E00097C01DF086C016F087C017F088C018F0AD
:1015F00089C019F072EC13F016C033F017C034F044
:1016000018C035F019C036F0CAEC23F02FC082F0B4
:1016100030C083F031C084F032C085F094C008F04F
:1016200095C009F096C00AF097C00BF0000E0C6E42
:10163000000E0D6E200E0E6E410E0F6E87EC15F033
:1016400008C094F009C095F00AC096F00BC097F05E
:1016500000018A4B8B2B72518A5D8B51800A426E3E
:101660007351800A4258D8A038EF0BF03AEF0BF0D4
:10167000B0EF0AF094C016F095C017F096C018F0BD
:1016800097C019F0000E1A6E000E1B6EA00E1C6E95
:10169000400E1D6E72EC13F016C086F017C087F076
:1016A00018C088F019C089F082C02FF083C030F0D4
:1016B00084C031F085C032F086C033F087C034F08A
:1016C00088C035F089C036F0E8EC1BF0D8B06BEF7D
:1016D0000BF06DEF0BF078EF0BF0000E0001866F52
:1016E000000E876F000E886F000E896FA1EF0BF060
:1016F00082C008F083C009F084C00AF085C00BF0F6
:1017000086C00CF087C00DF088C00EF089C00FF0C5
:10171000C5EC20F0D8A08FEF0BF091EF0BF0A1EF0C
:101720000BF0000178B197EF0BF099EF0BF0A1EF00
:101730000BF0000E866F000E876F000E886F000E94
:10174000896F8CC008F08DC009F08EC00AF08FC080
:101750000BF086C00CF087C00DF088C00EF089C079
:101760000FF012EC11F008C082F009C083F00AC03B
:1017700084F00BC085F082C02FF083C030F084C0AD
:1017800031F085C032F0000E1A6E000E1B6E200E76
:101790001C6E410E1D6E74C016F075C017F076C039
:1017A00018F077C019F072EC13F016C033F017C0C0
:1017B00034F018C035F019C036F0E8EC1BF0D8A0B2
:1017C000E4EF0BF0E6EF0BF00FEF0CF00001904BA5
:1017D000912B74C016F075C017F076C018F077C062
:1017E00019F0000E1A6E000E1B6E200E1C6E410EBC
:1017F0001D6E72EC13F016C074F017C075F018C0AF
:1018000076F019C077F0660E00018019D8A40BEFAE
:101810000CF00DEF0CF00FEF0CF0724B732B74C04B
:1018200094F075C095F076C096F077C097F0650E8D
:1018300000018019D8B41FEF0CF021EF0CF027EF56
:101840000CF090C070F091C071F02BEF0CF0000E16
:10185000716F000E706F000E6F6F000E6E6F000ED6
:101860006D6F000E6C6F000E8B6F000E8A6F27EF8E
:101870000DF082C008F083C009F084C00AF085C072
:101880000BF094C00CF095C00DF096C00EF097C010
:101890000FF087EC15F008C021F009C022F00AC053
:1018A00023F00BC024F054EC17F021C086F022C0C6
:1018B00087F023C088F024C089F086C008F087C074
:1018C00009F088C00AF089C00BF065EC1BF008C075
:1018D00078F009C079F051B870EF0CF072EF0CF0AD
:1018E00090EF0CF0000178517911D8A47AEF0CF048
:1018F0007CEF0CF090EF0CF0670E8119D8A483EF09
:101900000CF085EF0CF090EF0CF071BF8CEF0CF049
:101910008AEF0CF090EF0CF06C4B6D2BDBEF0CF0C2
:1019200000016E516F11D8A498EF0CF09AEF0CF0F3
:10193000C4EF0CF071BFA1EF0CF09FEF0CF0C4EFFF
:101940000CF00C0E9225D96E010E9321DA6E2E0E3C
:10195000DF6E924B932B7E07D8A07F07000E6F6F30
:10196000010E6E6FC4EF0CF00C0E9225D96E010EB5
:101970009321DA6E300EDF6E924B932B7E07D8A048
:101980007F076C07D8A06D076C516D11D8A4CBEF01
:101990000CF0CDEF0CF0B4EF0CF00C0E9225D96EDC
:1019A000010E9321DA6E7851300FDF6E924B932B3C
:1019B0007E07D8A07F0782C02FF083C030F084C09C
:1019C00031F085C032F094C01AF095C01BF096C07B
:1019D0001CF097C01DF086C016F087C017F088C0B5
:1019E00018F089C019F072EC13F016C033F017C06C
:1019F00034F018C035F019C036F0CAEC23F02FC00F
:101A000082F030C083F031C084F032C085F094C0E1
:101A100008F095C009F096C00AF097C00BF0000ED0
:101A20000C6E000E0D6E200E0E6E410E0F6E87ECCA
:101A300015F008C094F009C095F00AC096F00BC0EC
:101A400097F000017007D8A071078A4B8B2B725159
:101A50008A5D8B51800A426E7351800A4258D8B019
:101A600034EF0DF036EF0DF044EF0DF093BF42EF81
:101A70000DF0935109E14B0E925DD8A042EF0DF0AD
:101A800044EF0DF039EF0CF06E516F11D8A44BEF0D
:101A90000DF04DEF0DF05EEF0DF051A852EF0DF08F
:101AA00054EF0DF05EEF0DF00C0E9225D96E010E85
:101AB0009321DA6E2E0EDF6E924B932B0C0E922535
:101AC000D96E010E9321DA6E000EDF6E650E80195D
:101AD000D8A46DEF0DF06FEF0DF0C8EF08F0000E19
:101AE0008B6F4F0E8A6F0C0E8A25D96E010E8B21DB
:101AF000DA6E000EDF6E000E7B6F000E7A6F91BF04
:101B000086EF0DF084EF0DF08EEF0DF0000E7B6F81
:101B1000010E7A6F906D911FD8B0912B000E7D6FE2
:101B2000020E7C6FBFEF0DF08A07D8A08B070C0E5A
:101B30008A25D96E010E8B21DA6E90C008F091C013
:101B400009F0000E0B6E0A0E0A6E15EC20F008501C
:101B5000300FDF6E90C008F091C009F0000E0B6EE0
:101B60000A0E0A6E3FEC1EF008C090F009C091F01A
:101B700000017C07D8A07D077E07D8A07F07905181
:101B80009111D8A4C6EF0DF0C8EF0DF094EF0DF051
:101B90007DBFD5EF0DF07D5106E17C05D8B0D3EFC8
:101BA0000DF0D5EF0DF094EF0DF08A07D8A08B075C
:101BB0007A517B11D8A4DFEF0DF0E1EF0DF0E7EFE4
:101BC0000DF0000E676F2B0E666FEBEF0DF0000E41
:101BD000676F2D0E666F0C0E8A25D96E010E8B2154
:101BE000DA6E66C0DFFF7E07D8A07F078A07D8A01D
:101BF0008B07BF0E426EFF0E436E4150446E456A26
:101C0000425044264350452245500AE11A0E445C96
:101C1000D8A00DEF0EF010EF0EF0010E11EF0EF048
:101C2000000E6A6F6B6B6A516B11D8A41AEF0EF03D
:101C30001CEF0EF022EF0EF0000E696F650E686F5C
:101C400026EF0EF0000E696F450E686F0C0E8A25A8
:101C5000D96E010E8B21DA6E68C0DFFF7E07D8A037
:101C60007F070C0E9225086E010E9321096E0C0E53
:101C70008A250A6E010E8B210B6EA8EC22F0C8EFAC
:101C800008F0120049C0D9FF4AC0DAFFDECFF6FFE4
:101C9000DDCFF7FF000EF86E0800F550250AD8A436
:101CA00054EF0EF056EF0EF0F4EF10F049C0D9FFEC
:101CB0004AC0DAFFDE2A000EDD22000E0001C36FEB
:101CC000000EC26FC2C051F0C3C052F04F685068DE
:101CD00049C0D9FF4AC0DAFFDECFF6FFDDCFF7FFFC
:101CE000000EF86E0800F5502A0AD8A47AEF0EF01C
:101CF0007CEF0EF0A5EF0EF049C0D9FF4AC0DAFF25
:101D0000DE2A000EDD224BC0D9FF4CC0DAFFDFCF48
:101D100098F0020EDE26DFCF99F0000EDD2298C08B
:101D2000D9FF99C0DAFFDECFC2F0DDCFC3F0C3BF69
:101D30009EEF0EF09CEF0EF0EBEF0EF05180C26DB7
:101D4000C31FD8B0C32BEBEF0EF049C0D9FF4AC078
:101D5000DAFFDECF0FF0DDCF10F00AEC1AF00FC083
:101D6000C2F010C0C3F0BCEF0EF049C0D9FF4AC0AA
:101D7000DAFFDE2A000EDD22D00E0001986FFF0E82
:101D8000996F49C0D9FF4AC0DAFFDECFF6FFDDCF39
:101D9000F7FF000EF86E0800F5509A6F9B6B985194
:101DA0009A2799519B239B510AE10A0E9A5DD8A06C
:101DB000DCEF0EF0DFEF0EF0010EE0EF0EF0000EA4
:101DC0009C6F9D6B9C519D11D8A4E9EF0EF0EBEF39
:101DD0000EF0B5EF0EF049C0D9FF4AC0DAFFDECFF2
:101DE000F6FFDDCFF7FF000EF86E0800F5502E0A63
:101DF000D8A4FDEF0EF0FFEF0EF081EF0FF0000E14
:101E0000506E000E4F6E49C0D9FF4AC0DAFFDE2A7D
:101E1000000EDD2249C0D9FF4AC0DAFFDECFF6FF4F
:101E2000DDCFF7FF000EF86E0800F5502A0AD8A49F
:101E30001CEF0FF01EEF0FF03BEF0FF049C0D9FF82
:101E40004AC0DAFFDE2A000EDD224BC0D9FF4CC0AB
:101E5000DAFFDFCF98F0020EDE26DFCF99F0000E1A
:101E6000DD2298C0D9FF99C0DAFFDECF4FF0DDCF79
:101E700050F081EF0FF049C0D9FF4AC0DAFFDECF42
:101E80000FF0DDCF10F00AEC1AF00FC04FF010C0C9
:101E900050F052EF0FF049C0D9FF4AC0DAFFDE2AF6
:101EA000000EDD22D00E0001986FFF0E996F49C021
:101EB000D9FF4AC0DAFFDECFF6FFDDCFF7FF000E15
:101EC000F86E0800F5509A6F9B6B98519A279951BC
:101ED0009B239B510AE10A0E9A5DD8A072EF0FF086
:101EE00075EF0FF0010E76EF0FF0000E9E6F9F6BF7
:101EF0009E519F11D8A47FEF0FF081EF0FF04BEFB1
:101F00000FF049C0D9FF4AC0DAFFDECFF6FFDDCFC0
:101F1000F7FF000EF86E0800F5500E6E0F6A78ECB1
:101F200022F00E500001A66FA651D8B49AEF0FF020
:101F30009CEF0FF0DAEF0FF049C0D9FF4AC0DAFF8B
:101F4000DECF98F0DDCF99F0010E9827000E99238F
:101F500098C0F6FF99C0F7FF000EF86E0800F55024
:101F60000E6E0F6A78EC22F00E500001A76FA75199
:101F7000D8B4BDEF0FF0BFEF0FF0DAEF0FF049C0AC
:101F8000D9FF4AC0DAFFDECF98F0DDCF99F0020E1C
:101F90009827000E992398C0F6FF99C0F7FF000E0E
:101FA000F86E0800F5500E6E0F6A78EC22F00E50B5
:101FB0000001A86F660EA619D8A4E1EF0FF0E3EFB9
:101FC0000FF025EF10F049C0D9FF4AC0DAFFDECF8D
:101FD000F6FFDDCFF7FF000EF86E0800F5CFA9F091
:101FE00049C0D9FF4AC0DAFFDE2A000EDD224BC00D
:101FF000D9FF4CC0DAFFDFCF98F0040EDE26DFCF2A
:1020000099F0000EDD2298C0D9FF99C0DAFFDECF2B
:10201000A2F0DECFA3F0DECFA4F0DECFA5F047C064
:102020003BF048C03CF0A2C03DF0A3C03EF0A4C0CD
:102030003FF0A5C040F0A9C041F015EC08F03BC04E
:1020400047F03CC048F011EF11F0A60E086E000EEC
:10205000096E260E0A6E100E0B6E000E0D6E020E2D
:102060000C6E69EC1DF008500910D8A43AEF10F07E
:102070003CEF10F0BCEF10F049C0D9FF4AC0DAFFC6
:10208000DECF98F0DDCF99F0010E00019827000E09
:10209000992398C0F6FF99C0F7FF000EF86E08006C
:1020A000F5CFA9F0BF0E986FFF0E996F49C0D9FF09
:1020B0004AC0DAFFDECFF6FFDDCFF7FF000EF86E85
:1020C0000800F5509A6F9B6B98519A2799519B2362
:1020D0009B510AE11A0E9A5DD8A071EF10F074EFCF
:1020E00010F0010E75EF10F0000EA06FA16BA05163
:1020F000A111D8B47EEF10F080EF10F09AEF10F03D
:102100004BC0D9FF4CC0DAFFDFCF98F0040EDE26BB
:10211000DFCF99F0000EDD2298C0D9FF99C0DAFF19
:10212000DECFA2F0DECFA3F0DECFA4F0DECFA5F0AD
:10213000B2EF10F04BC0D9FF4CC0DAFFDFCF98F000
:10214000040EDE26DFCF99F0000EDD2298C0D9FF05
:1021500099C0DAFFDECFA2F0DECFA3F0DECFA4F08D
:10216000DECFA5F0020E49C0D9FF4AC0DAFFDE2655
:10217000000EDD220FEF10F049C0D9FF4AC0DAFF90
:10218000DECFF6FFDDCFF7FF000EF86E0800F5504A
:10219000250AD8A4CEEF10F0D0EF10F0E7EF10F042
:1021A00049C0D9FF4AC0DAFFDE2A000EDD22000E48
:1021B000096E250E086E47C00AF048C00BF0DAEC35
:1021C0001DF0000E486E010E476E11EF11F049C070
:1021D000D9FF4AC0DAFFDE2A000EDD22000E486E6B
:1021E000000E476E11EF11F049C0D9FF4AC0DAFF67
:1021F000DECFF6FFDDCFF7FF000EF86E0800F550DA
:10220000086E096A47C00AF048C00BF0DAEC1DF00E
:1022100049C0D9FF4AC0DAFFDE2A000EDD22E1EF15
:1022200010F012000B50800B146E0B500B24166E26
:102230000AAE1DEF11F01FEF11F020EF11F0168024
:102240001650D8B426EF11F028EF11F03DEF11F041
:102250001628D8A42EEF11F030EF11F038EF11F05E
:10226000000E086E000E096E000E0A6E000E0B6E58
:102270000A8E000E0B6E45EF11F0000E086E000E78
:10228000096E000E0A6E000E0B6E0F50800B156E5D
:1022900014501518D8B44FEF11F051EF11F052EF60
:1022A00011F0148C0F500F24156E0EAE5AEF11F072
:1022B0005CEF11F05DEF11F015801550D8B463EFAD
:1022C00011F065EF11F07AEF11F01528D8A46BEF3B
:1022D00011F06DEF11F075EF11F0000E0C6E000EA5
:1022E0000D6E000E0E6E000E0F6E0E8E000E0F6E37
:1022F00082EF11F0000E0C6E000E0D6E000E0E6ED1
:10230000000E0F6E1650155CD8B089EF11F08BEFF0
:1023100011F0B2EF11F014AC90EF11F092EF11F058
:1023200094EF11F0800E141A16C017F015C016F0B5
:1023300017C015F008C017F00CC008F017C00CF05B
:1023400009C017F00DC009F017C00DF00AC017F052
:102350000EC00AF017C00EF00BC017F00FC00BF044
:1023600017C00FF0000E176E165015C010F0116A4E
:10237000105E000E115A11BEC7EF11F0115009E1A5
:102380001A0E105CD8A0C7EF11F0C9EF11F000EFE2
:1023900012F0085009100A100B10D8A4D2EF11F057
:1023A000D5EF11F0010ED6EF11F0000E176E000EF2
:1023B000086E000E096E000E0A6E000E0B6E15C040
:1023C00016F009EF12F017A0E8EF11F0EAEF11F0A4
:1023D000F0EF11F0D89017300109176EF2EF11F0FD
:1023E000D890173208A0F7EF11F0F9EF11F0FAEFDB
:1023F00011F0178E0B340B320A3209320832162ACA
:102400001550165CD8A007EF12F009EF12F0E3EFB9
:1024100011F014BC0EEF12F010EF12F050EF12F0AA
:102420001650D8A416EF12F018EF12F022EF12F0A7
:10243000000E086E000E096E000E0A6E000E0B6E86
:1024400071EF13F00C5008260D5009220E500A228D
:102450000F500B220BA02FEF12F031EF12F0DDEF37
:1024600012F017A036EF12F038EF12F03EEF12F034
:10247000D89017300109176E40EF12F0D89017323C
:1024800008A045EF12F047EF12F048EF12F0178E58
:102490000B340B320A3209320832162ADDEF12F001
:1024A0000C50085C0D5009580E500A580B50800A09
:1024B000106E0F50800A1058D8B061EF12F063EF21
:1024C00012F08EEF12F008500C5C106E09500D588F
:1024D000116E0A500E58126E0B500F58136EFF0EED
:1024E0001024086EFF0E1120096EFF0E12200A6ED6
:1024F000FF0E13200B6E800E141A176C1750D8A401
:1025000084EF12F086EF12F096EF12F0010E08261B
:10251000000E09220A220B2296EF12F00C50085EE0
:102520000D50095A0E500A5A0F500B5A08500910F4
:102530000A100B10D8A49FEF12F0A1EF12F0D6EF03
:1025400012F01750D8A4A7EF12F0A9EF12F0D6EFAF
:1025500012F0000E086E000E096E000E0A6E000EDC
:102560000B6E71EF13F0D890083609360A360B3629
:1025700017AEBDEF12F0BFEF12F0C0EF12F00880FF
:1025800017A0C5EF12F0C7EF12F0CBEF12F0D88012
:102590001736CDEF12F0D89017361650D8B4D3EFC7
:1025A00012F0D5EF12F0D6EF12F016060AAEDBEFFE
:1025B00012F0DDEF12F0B3EF12F0000E156E17AE51
:1025C000E4EF12F0E6EF12F0FEEF12F017C010F099
:1025D0007F0E1016D8B4EFEF12F0F1EF12F0F5EF16
:1025E00012F0010E156EFEEF12F008A0FAEF12F0D5
:1025F000FCEF12F0FEEF12F0F1EF12F01550D8B42C
:1026000004EF13F006EF13F031EF13F0010E08267C
:10261000000E09220A220B220BA011EF13F013EF78
:1026200013F031EF13F008C010F009C011F00AC028
:1026300012F00BC013F01334133212321132103275
:1026400010C008F011C009F012C00AF013C00BF05E
:102650001628D8B42EEF13F030EF13F031EF13F04B
:10266000162A1628D8B437EF13F039EF13F041EFDC
:1026700013F01650D8A43FEF13F041EF13F053EFCF
:1026800013F0000E086E000E096E000E0A6E000EAA
:102690000B6E1650D8A44FEF13F051EF13F053EF19
:1026A00013F0000E146E16A058EF13F05AEF13F04B
:1026B0005DEF13F00A8E5EEF13F00A9ED89016308D
:1026C0000B6E14AE66EF13F068EF13F069EF13F0C2
:1026D0000B8E08C008F009C009F00AC00AF00BC050
:1026E0000BF012001950800B226E19501924286E1D
:1026F00018AE7DEF13F07FEF13F080EF13F028801A
:102700002850D8B486EF13F088EF13F09BEF13F046
:102710002828D8A48EEF13F090EF13F098EF13F061
:10272000000E166E000E176E000E186E000E196E5B
:10273000188EA3EF13F0000E166E000E176E000E2B
:10274000186E000E196E1D50800B221A1D501D248C
:10275000236E1CAEAEEF13F0B0EF13F0B1EF13F039
:1027600023802350D8B4B7EF13F0B9EF13F0CCEFB8
:1027700013F02328D8A4BFEF13F0C1EF13F0C9EF73
:1027800013F0000E1A6E000E1B6E000E1C6E000E73
:102790001D6E1C8ED4EF13F0000E1A6E000E1B6E11
:1027A000000E1C6E000E1D6E2350D8B4DAEF13F02D
:1027B000DCEF13F0E4EF13F02850D8A4E2EF13F0AD
:1027C000E4EF13F0EEEF13F0000E166E000E176E2E
:1027D000000E186E000E196E86EF15F01C501602D2
:1027E000F3CF2DF0F4CF2EF02D50246E256A266AFB
:1027F000276A2E50296E2A6A2B6A2C6A1B501702F0
:10280000F3CF2DF0F4CF2EF02D502426000E2522EC
:10281000262227222E502926000E2A222B222C2265
:102820001A501802F3CF2DF0F4CF2EF02D5024269D
:10283000000E2522262227222E502926000E2A228B
:102840002B222C2226C027F025C026F024C025F0FC
:10285000246A1A501702F3CF2DF0F4CF2EF02D502A
:1028600024262E502522000E2622000E27221B5041
:102870001602F3CF2DF0F4CF2EF02D5024262E503B
:102880002522000E2622000E272226C027F025C072
:1028900026F024C025F0246A1A501602F3CF2DF03A
:1028A000F4CF2EF02D5024262E502522000E262265
:1028B000000E27221C501702F3CF2DF0F4CF2EF07C
:1028C0002D5029262E502A22000E2B22000E2C22BB
:1028D0001B501802F3CF2DF0F4CF2EF02D502926E7
:1028E0002E502A22000E2B22000E2C221C501802E1
:1028F000F3CF2DF0F4CF2EF02D501E6E2E501F6E04
:10290000206A216A20C021F01FC020F01EC01FF0E5
:102910001E6A1E5029261F502A2220502B22215089
:102920002C2224C01EF025C01FF026C020F027C096
:1029300021F0190EA1EF14F0D890213220321F326D
:102940001E32E82E9CEF14F01E5029261F502A221A
:1029500020502B2221502C2226C027F025C026F003
:1029600024C025F0246A235028C01EF01F6A1E26AA
:10297000000E1F22820E1E242D6EFF0E1F202E6EB3
:10298000D7EF14F0D89029362A362B362C3627AEBE
:10299000CCEF14F0CEEF14F0CFEF14F02980D890E4
:1029A00024362536263627362D06D8A02E062BAE01
:1029B000DCEF14F0DEEF14F0C2EF14F0000E236E23
:1029C00027AEE5EF14F0E7EF14F00BEF15F0FF0E74
:1029D00024141E6EFF0E25141F6EFF0E2614206E8B
:1029E0007F0E2714216E1E501F1020102110D8B406
:1029F000FCEF14F0FEEF14F002EF15F0010E236E61
:102A00000BEF15F029A007EF15F009EF15F00BEF0C
:102A100015F0FEEF14F02350D8B411EF15F013EFBA
:102A200015F037EF15F0010E2926000E2A222B2271
:102A30002C222CA01EEF15F020EF15F037EF15F02B
:102A400029C01EF02AC01FF02BC020F02CC021F09E
:102A50002134213220321F321E321EC029F01FC005
:102A60002AF020C02BF021C02CF02D4A2E2A2EBE99
:102A700042EF15F02E5008E12D28D8A042EF15F0B6
:102A800044EF15F04EEF15F0000E296E000E2A6E81
:102A9000800E2B6E7F0E2C6E7CEF15F02EBE5BEF42
:102AA00015F02E5006E12D04D8B059EF15F05BEF6C
:102AB00015F067EF15F0000E296E000E2A6E000E5D
:102AC0002B6E000E2C6E000E226E7CEF15F02DC0CA
:102AD00028F0FF0E2916FF0E2A167F0E2B16000E69
:102AE0002C1628A076EF15F078EF15F079EF15F099
:102AF0002B8ED89028302C6E22502C1229C016F024
:102B00002AC017F02BC018F02CC019F012000B507F
:102B1000800B186E0B500B241F6E0AAE92EF15F04F
:102B200094EF15F095EF15F01F801F50D8B49BEF70
:102B300015F09DEF15F0B2EF15F01F28D8A4A3EF04
:102B400015F0A5EF15F0ADEF15F0000E086E000EB4
:102B5000096E000E0A6E000E0B6E0A8E000E0B6ED2
:102B6000BAEF15F0000E086E000E096E000E0A6E28
:102B7000000E0B6E0F50800B181A0F500F24206E92
:102B80000EAEC5EF15F0C7EF15F0C8EF15F02080B9
:102B90002050D8B4CEEF15F0D0EF15F0E5EF15F0DA
:102BA0002028D8A4D6EF15F0D8EF15F0E0EF15F0F7
:102BB000000E0C6E000E0D6E000E0E6E000E0F6EEF
:102BC0000E8E000E0F6EEDEF15F0000E0C6E000E67
:102BD0000D6E000E0E6E000E0F6E0C500D100E10CE
:102BE0000F10D8A4F6EF15F0F8EF15F010EF16F06F
:102BF000000E086E000E096E000E0A6E000E0B6EBF
:102C0000800E0A127F0E0B1218500B1208C008F02B
:102C100009C009F00AC00AF00BC00BF053EF17F01F
:102C20001F50D8A416EF16F018EF16F022EF16F08A
:102C3000000E086E000E096E000E0A6E000E0B6E7E
:102C400053EF17F020501FC010F0116A105E000EF5
:102C5000115A7F0E1024196E000E11201A6E08C032
:102C600014F009C015F00AC016F00BC017F0000EE2
:102C7000086E000E096E000E0A6E000E0B6E000E3E
:102C80001B6E000E1C6E000E1D6E000E1E6E000EE2
:102C9000206E83EF16F02050D8B451EF16F053EFAA
:102CA00016F06AEF16F0D890143615361636173629
:102CB000D890083609360A360B361EAE62EF16F08B
:102CC00064EF16F065EF16F00880D8901B361C36BE
:102CD0001D361E360C50145C0D5015580E501658EB
:102CE0000F501758D8A077EF16F079EF16F082EF53
:102CF00016F01E8C0C50145E0D50155A0E50165ABC
:102D00000F50175A202A190E206489EF16F08BEF06
:102D100016F04BEF16F01450151016101710D8B40B
:102D200094EF16F096EF16F0AEEF16F01B80AEEFB4
:102D300016F0D890083609360A360B361EAEA3EFC9
:102D400016F0A5EF16F0A6EF16F00880D8901B3607
:102D50001C361D361E361906D8A01A060AAEB3EF69
:102D600016F0B5EF16F099EF16F0000E206E1EAEBD
:102D7000BCEF16F0BEEF16F0E2EF16F0FF0E1B14DC
:102D8000106EFF0E1C14116EFF0E1D14126E7F0EBE
:102D90001E14136E1050111012101310D8B4D3EF6C
:102DA00016F0D5EF16F0D9EF16F0010E206EE2EF17
:102DB00016F008A0DEEF16F0E0EF16F0E2EF16F0E6
:102DC000D5EF16F02050D8B4E8EF16F0EAEF16F081
:102DD0000EEF17F0010E0826000E09220A220B2220
:102DE0000BA0F5EF16F0F7EF16F00EEF17F008C096
:102DF00010F009C011F00AC012F00BC013F0133428
:102E0000133212321132103210C008F011C009F022
:102E100012C00AF013C00BF0194A1A2A1ABE19EF91
:102E200017F01A5008E11928D8A019EF17F01BEF76
:102E300017F026EF17F0000E1A6E1968000E086ED4
:102E4000000E096E000E0A6E000E0B6E1ABE33EFF6
:102E500017F01A5006E11904D8B031EF17F033EF2C
:102E600017F041EF17F0000E1A6E000E196E000EEB
:102E7000086E000E096E000E0A6E000E0B6E000E3C
:102E8000186E19C01FF01FA048EF17F04AEF17F097
:102E90004DEF17F00A8E4EEF17F00A9ED8901F30B4
:102EA0000B6E04EF16F0120000C131F001C132F0D8
:102EB00002C133F003C134F021C031F022C032F03E
:102EC00023C033F024C034F0810E256EFF0E266E31
:102ED00031C027F032C028F033C029F034C02AF0C6
:102EE000180E78EF17F0D8902A322932283227327C
:102EF000E82E73EF17F0275025242F6E000E2620A2
:102F0000306E30BE8DEF17F0305009E1170E2F5C98
:102F1000D8A08DEF17F08FEF17F099EF17F021C0C1
:102F200021F022C022F023C023F024C024F05CEF63
:102F300018F030BE9EEF17F0A0EF17F010EF18F06A
:102F40002FC025F0FF0E266EFF0E276E7F0E286E17
:102F5000000E296E2566AFEF17F0B7EF17F0293492
:102F60002932283227322632252EAAEF17F026C022
:102F70002BF027C02CF028C02DF029C02EF02B50AC
:102F80003114256E2C503214266E2D503314276EBA
:102F90002E503414286E2550261027102810D8A43F
:102FA000D4EF17F0D6EF17F0D8EF17F08FEF17F038
:102FB00031C025F032C026F033C027F034C028F0ED
:102FC000200EE8EF17F0D89028322732263225322B
:102FD000E82EE3EF17F02550261027102810D8B45C
:102FE000F4EF17F0F6EF17F0FEEF17F02B50312645
:102FF0002C5032222D5033222E5034222B1C256E81
:103000002C1C266E2D1C276E2E1C286E255031166A
:1030100026503216275033162850341654EF18F025
:1030200031C025F032C026F033C027F034C028F07C
:10303000200E20EF18F0D890283227322632253281
:10304000E82E1BEF18F02550261027102810D8A4C2
:103050002CEF18F02EEF18F038EF18F0000E316E4C
:10306000000E326E000E336E000E346E54EF18F008
:10307000D8903134256E3234266E3334276E343492
:10308000286E2550261027102810D8B44AEF18F0C3
:103090004CEF18F054EF18F0000E316E000E326E47
:1030A000800E336EBF0E346E31C021F032C022F07C
:1030B00033C023F034C024F01200106E1050D8B486
:1030C00064EF18F066EF18F088EF18F00BBE6DEFA4
:1030D00018F06BEF18F088EF18F008C00CF009C07A
:1030E0000DF00AC00EF00BC00FF00C1E0D1E0E1ED0
:1030F0000F1E0C2A000E0D220E220F220CC012F001
:103100000DC013F00EC014F00FC015F090EF18F0C2
:1031100008C012F009C013F00AC014F00BC015F07B
:10312000085009100A100B10D8A499EF18F09BEF63
:1031300018F0A5EF18F0000E086E000E096E000ED4
:103140000A6E000E0B6E36EF19F0960E116EAFEF91
:1031500018F0112AD8901532143213321232000EA0
:1031600012140C6E000E13140D6E000E14140E6E5D
:10317000FE0E15140F6E0C500D100E100F10D8A46B
:10318000C4EF18F0C6EF18F0A9EF18F0D4EF18F05C
:10319000112A010E1226000E132214221522D89095
:1031A0001532143213321232000E12140C6E000E4D
:1031B00013140D6E000E14140E6EFF0E15140F6E08
:1031C0000C500D100E100F10D8A4E9EF18F0EBEF13
:1031D00018F0C8EF18F0F3EF18F01106D890123677
:1031E00013361436153614BEF8EF18F0FAEF18F04F
:1031F00002EF19F0020E116000EF19F002EF19F062
:10320000EDEF18F011B007EF19F009EF19F00AEF20
:1032100019F0149ED890113211C00CF00D6A0E6A8C
:103220000F6A0CC00FF00E6A0D6A0C6A0C50121275
:103230000D5013120E5014120F5015121050D8B416
:1032400024EF19F026EF19F02EEF19F00BBE2DEF39
:1032500019F02BEF19F02EEF19F0158E12C008F0AF
:1032600013C009F014C00AF015C00BF01200DDEC19
:1032700021F0830EC216010E0001ED6F010EE16F09
:10328000DDEC21F0C250830B0C09C26E010E00016F
:10329000ED6F000EE16FCEC008F0CFC009F00A6AF2
:1032A0000B6A000E5DEC18F008C016F009C017F0AC
:1032B0000AC018F00BC019F09D0E1A6E110E1B6E8D
:1032C000A50E1C6E3D0E1D6E72EC13F016C0BCF008
:1032D00017C0BDF018C0BEF019C0BFF0CCC008F0D8
:1032E000CDC009F00A6A0B6A000E5DEC18F008C048
:1032F00016F009C017F00AC018F00BC019F0BF0E85
:103300001A6E490E1B6E530E1C6E3A0E1D6E72EC39
:1033100013F016C0B8F017C0B9F018C0BAF019C051
:10332000BBF0EE0E0001B06F000EB16F100EB26F69
:10333000100EB36FB8C0B4F0B9C0B5F0BAC0B6F0F3
:10334000BBC0B7F005EC23F0EEC0B3F1F0C0B5F1AF
:10335000F1C0B6F1EEC079F1F0C07BF1F1C07CF1C3
:10336000EEC072F1F0C074F1F1C075F1F40E00011D
:10337000B06F000EB16F0A0EB26F100EB36FBCC00B
:10338000B4F0BDC0B5F0BEC0B6F0BFC0B7F005EC3C
:1033900023F0BCC02FF0BDC030F0BEC031F0BFC0C4
:1033A00032F0000E336E000E346E200E356E410E7C
:1033B000366EE8EC1BF0D8B0E0EF19F0E2EF19F050
:1033C000F7EF19F0300E0101BC6FF4C0BDF1F6C08B
:1033D000BFF1300E806FF4C081F1F6C083F1300E82
:1033E000686FF4C069F1F6C06BF109EF1AF0F4C030
:1033F000BCF1F5C0BDF1F7C0BFF1F4C080F1F5C07C
:1034000081F1F7C083F1F4C068F1F5C069F1F7C04C
:103410006BF11200000E1D6E000E1C6E000E166E7B
:10342000000E156E16EF1AF00F4A102A010E1B6ED1
:103430000FC0F6FF10C0F7FF000EF86E0800F55041
:10344000200AD8B426EF1AF028EF1AF047EF1AF046
:10345000F70E116EFF0E126E0FC0F6FF10C0F7FFD1
:10346000000EF86E0800F550136E146A1150132602
:1034700012501422145009E1050E135CD8A043EF3A
:103480001AF045EF1AF047EF1AF0000E1B6E1BC042
:1034900017F0186A17501810D8A451EF1AF053EF0C
:1034A0001AF014EF1AF05DEF1AF0000E166E010E0E
:1034B000156E0F4A102A96EF1AF00FC0F6FF10C0D3
:1034C000F7FF000EF86E0800F550116E126A1250E8
:1034D000000AD8B46EEF1AF096EF1AF011502B0ACA
:1034E000D8B459EF1AF0060AD8B455EF1AF096EF8F
:1034F0001AF01CC008F01DC009F0000E0B6E0A0E79
:103500000A6E9AEC24F00FC0F6FF10C0F7FF000E11
:10351000F86E0800F550085E000E095A300E0824B7
:103520001C6E000E09201D6E59EF1AF0D00E116EA0
:10353000FF0E126E0FC0F6FF10C0F7FF000EF86E00
:103540000800F550136E146A1150132612501422FD
:1035500014500AE10A0E135CD8A0B1EF1AF0B4EFD0
:103560001AF0010EB5EF1AF0000E196E1A6A195012
:103570001A10D8A4BEEF1AF0C0EF1AF079EF1AF0C3
:1035800015501610D8A4C7EF1AF0C9EF1AF0D7EFEC
:103590001AF01CC011F01DC012F0111E121E114AAB
:1035A000122A11C00FF012C010F0DBEF1AF01CC08D
:1035B0000FF01DC010F0120042EF1BF05C0E086E01
:1035C000010E096E9B0E0A6E010E0B6EA7EC21F028
:1035D00008500910D8A4EFEF1AF0F1EF1AF05FEFDE
:1035E0001BF0010E556E5FEF1BF05C0E086E010EB6
:1035F000096EA50E0A6E010E0B6EA7EC21F00850A5
:103600000910D8A406EF1BF008EF1BF05FEF1BF0CA
:10361000010E0001E06F5FEF1BF05C0E086E010E03
:10362000096E910E0A6E010E0B6EA7EC21F0085088
:103630000910D8A41EEF1BF020EF1BF05FEF1BF06A
:10364000010E0001DF6F5FEF1BF05C0E086E010ED4
:10365000096E870E0A6E010E0B6EA7EC21F0085062
:103660000910D8A436EF1BF038EF1BF05FEF1BF00A
:10367000000E0001DF6F5FEF1BF0010E0001DE6F37
:103680005FEF1BF053500E6E0F6A0F50000AD8B454
:103690004CEF1BF03DEF1BF00E50030AD8B4DEEFE9
:1036A0001AF0070AD8B4F5EF1AF0030AD8B40DEFF0
:1036B0001BF00F0AD8B425EF1BF03DEF1BF0000EF6
:1036C000536E000E0001DB6F12000A340B34116ED2
:1036D0001150D8A46EEF1BF070EF1BF07AEF1BF0C7
:1036E000000E086E000E096E000E0A6E000E0B6EC4
:1036F000E7EF1BF008C00CF009C00DF00AC00EF097
:103700000BC00FF0200E8AEF1BF0D8900F320E3254
:103710000D320C32E82E85EF1BF00C50106E0A8E25
:10372000FF0E0816FF0E0916FF0E0A16000E0B16E6
:10373000960E115E11BEA1EF1BF09FEF1BF0B7EFCD
:103740001BF01150800A970FD8B0A9EF1BF0ABEF18
:103750001BF0ADEF1BF070EF1BF0D8900B320A326C
:1037600009320832113EADEF1BF0CFEF1BF01F0EF8
:103770001164BDEF1BF0BFEF1BF0C7EF1BF070EF44
:103780001BF0D890083609360A360B361106115050
:10379000D8A4CDEF1BF0CFEF1BF0C1EF1BF0105002
:1037A000D8B4D5EF1BF0D7EF1BF0DFEF1BF00B1EEB
:1037B0000A1E091E086C000E09220A220B2208C0EC
:1037C00008F009C009F00AC00AF00BC00BF01200A3
:1037D000000E2F14376E000E3014386E800E311428
:1037E000396E7F0E32143A6E3750381039103A1055
:1037F000D8A4FDEF1BF0FFEF1BF007EF1CF0000E4D
:103800002F6E000E306E000E316E000E326E000E06
:103810003314376E000E3414386E800E3514396E42
:103820007F0E36143A6E3750381039103A10D8A43B
:103830001CEF1CF01EEF1CF026EF1CF0000E336E88
:10384000000E346E000E356E000E366E32AE2BEF6B
:103850001CF02DEF1CF036EF1CF02F6C301ED8B092
:10386000302A311ED8B0312A800E325636AE3BEFA8
:103870001CF03DEF1CF046EF1CF0336C341ED8B04A
:10388000342A351ED8B0352A800E3656000E2F1A2F
:10389000000E301A000E311A800E321A000E331A42
:1038A000000E341A000E351A800E361A33502F5C73
:1038B000345030583550315836503258D8B063EF04
:1038C0001CF065EF1CF068EF1CF0D89069EF1CF05D
:1038D000D8801200290E926E000E896E0F0E956E22
:1038E000000E8C6E930E946E000E8B6E000E966E14
:1038F0008D809398939AC00E936E000E8A6E090E77
:103900000F01256F000E246F000E236F0C0EC26E88
:10391000CF0EC116C196950EC06E040ED56E0B0E5D
:10392000D76EDC0ED66E020ECD6E020EB16EE7C003
:10393000FAF0E8C0FBF0E9C0FCF0EAC0FDF00A0EC6
:10394000BB6EF80E2D170F0EBD6E420EBC6E0A0E2A
:10395000496F2D513F0B40092D6FE9C0FEF0E7C0C4
:103960004AFFE8C04BFF200EAC6E100EAB6E400E4F
:10397000656E0C0EAF6EC78EC78CC698F00EC6165D
:10398000D08EF28CF28EF194F28AF2949F909D8008
:103990009E90A292A082A192A592A382A492B89096
:1039A000B680B7909F8A9D8A9E9A9F88200E8C6EC3
:1039B000D58E030E5664DFEF1CF0E1EF1CF0D9EF5B
:1039C0001CF060EC1FF0C280AB8EC68A8C88CD8064
:1039D000B180120004C112F005C113F006C114F049
:1039E00007C115F008C012F009C013F00AC014F0A6
:1039F0000BC015F012C00CF013C00DF014C00EF087
:103A000015C00FF0180E0AEF1DF0D8900F320E32CD
:103A10000D320C32E82E05EF1DF00C50106E116ABD
:103A200010501110D8A417EF1DF019EF1DF039EF49
:103A30001DF0D89012340C6E13340D6E14340E6ECB
:103A400015340F6E0C500D100E100F10D8A42BEF64
:103A50001DF02DEF1DF033EF1DF0000E096E020E6C
:103A6000086E68EF1DF0000E096E030E086E68EF19
:103A70001DF010281110D8A440EF1DF042EF1DF0EA
:103A800064EF1DF012C00CF013C00DF014C00EF066
:103A900015C00FF0090ED8900C360D360E360F36C5
:103AA000E82E4BEF1DF00C500D100E100F10D8B477
:103AB0005CEF1DF05FEF1DF0010E60EF1DF0000EDA
:103AC000086E096A68EF1DF0000E096E040E086E9C
:103AD000120008C00FF009C010F00AC011F00BC0AE
:103AE00012F00C06D8A00D060C2806E10D28D8A46B
:103AF0007CEF1DF07EEF1DF08BEF1DF0000E096EC8
:103B0000000E086ED9EF1DF00F4A102A114A122A32
:103B10000C06D8A00D060FC0D9FF10C0DAFFDF5089
:103B2000D8B495EF1DF097EF1DF0C6EF1DF011C052
:103B3000F6FF12C0F7FF000EF86E0800F5500009FE
:103B4000D8B4A5EF1DF0A7EF1DF0C6EF1DF00C5087
:103B50000D10D8B4AEEF1DF0B0EF1DF0C6EF1DF0A4
:103B60000FC0D9FF10C0DAFFDF500E6E11C0F6FF94
:103B700012C0F7FF000EF86E0800F5500E18D8B40A
:103B8000C4EF1DF0C6EF1DF084EF1DF00FC0D9FF8C
:103B900010C0DAFFDF500E6E11C0F6FF12C0F7FF43
:103BA000000EF86E0800F5500E5C086E096AD8A089
:103BB000090612000A500B10D8B4E1EF1DF0E3EF34
:103BC0001DF0ECEF1DF00A500B10D8A4EAEF1DF029
:103BD000ECEF1DF0F1EF1DF008500EEC25F03EEF7C
:103BE0001EF020EE04F00A50D9260B50DA22DE50E7
:103BF000DE10D8B4FEEF1DF000EF1EF01BEF1EF03C
:103C000020EE04F00A50D9260B50DA2210EE02F012
:103C10000A50E1260B50E222DE50E65CE650800AB4
:103C2000106EDE50800A1058D8B019EF1EF01BEF4E
:103C30001EF03EEF1EF020EE02F00A50D9260B5087
:103C4000DA22DECF0CF0DDCF0DF00AC0D9FF0BC0B9
:103C5000DAFFDECF0EF0DDCF0FF00C500E24D96E60
:103C60000D500F20DA6E08C0DFFF20EE02F00A5080
:103C7000D9260B50DA22DE2A000EDD221200000EB9
:103C80000D6E0BBE48EF1EF046EF1EF04EEF1EF01D
:103C90000A6C0B1ED8B00B2A010E0D6E09BE55EF33
:103CA0001EF053EF1EF05BEF1EF0086C091ED8B03B
:103CB000092A010E0D1A000E0F6E000E0E6E0A502C
:103CC0000B10D8B466EF1EF068EF1EF090EF1EF0F8
:103CD000010E0C6E70EF1EF0D8900A360B360C2ACF
:103CE0000BAE75EF1EF077EF1EF06CEF1EF0D89064
:103CF0000E360F360A50085C0B500958D8A083EFD7
:103D00001EF085EF1EF08AEF1EF00A50085E0B5081
:103D1000095A0E80D8900B320A320C2E77EF1EF023
:103D20000D50D8B496EF1EF098EF1EF09CEF1EF0E9
:103D30000E6C0F1ED8B00F2A0EC008F00FC009F08D
:103D4000120051A0A6EF1EF0A8EF1EF0B2EF1EF079
:103D50001AC011F01BC012F018C013F019C014F0F3
:103D6000EDEC23F01DBEB7EF1EF0B9EF1EF0BFEF74
:103D70001EF01CC021F01DC022F0C3EF1EF0000E8B
:103D8000226E000E216E000E206E000E1F6ED5EF0B
:103D90001EF0000E096E200E086E18C00AF019C041
:103DA0000BF0DAEC1DF01F4A202A21501F5C205036
:103DB000800A1E6E2250800A1E58D8A0E2EF1EF024
:103DC000E4EF1EF0C9EF1EF051B0E9EF1EF0EBEF8B
:103DD0001EF0F5EF1EF01AC011F01BC012F018C053
:103DE00013F019C014F0EDEC23F01AC008F01BC05A
:103DF00009F07FEC24F021500824186E225009208D
:103E0000196E1200000E0001C56F000EC46F8D9078
:103E1000C851EB11C46FC951EC11C56FC551C96EC2
:103E2000C7A015EF1FF017EF1FF010EF1FF0C9CF5D
:103E3000D2F0C4C0C9FFC7A020EF1FF022EF1FF0CF
:103E40001BEF1FF0C9CFD2F08D800001D351D8A451
:103E50002CEF1FF02EEF1FF049EF1FF0FC0EC819DA
:103E600007E10F0EC919D8A438EF1FF03AEF1FF081
:103E700043EF1FF0010ED36F040EC85F000EC95B45
:103E800089885FEF1FF0040EC827000EC9235FEF7B
:103E90001FF0C851C911D8A450EF1FF052EF1FF006
:103EA0005BEF1FF0000ED36F040EC827000EC9236E
:103EB00089985FEF1FF0040EC85F000EC95B120007
:103EC000000E096ED00E086ECA0EE82EFED7082E20
:103ED000FCD78A98A6EF1FF0000E8A6E8A8A030E1E
:103EE0000924F66EF76A100EF722F86A000EF8221F
:103EF0000800F550F00B0A6E0A380F0B0A6E0A50D4
:103F000081108A6E8A9A340E086EF20EE82EFED761
:103F1000082EFCD7000E8A6E8A8A030E0924F66EDC
:103F2000F76A100EF722F86A000EF8220800F55022
:103F30000F0B0A6E0A5081108A6E8A9A340E086E30
:103F4000F20EE82EFED7082EFCD7092A030E09240C
:103F5000F66EF76A100EF722F86A000EF8220800D3
:103F6000F5500009D8A4B7EF1FF0B9EF1FF06CEFC0
:103F70001FF08A881200000E0B6E06EF20F08A9A5E
:103F80008150C00B8A6E0B50D8A4C9EF1FF0CBEF45
:103F90001FF0CEEF1FF08A98CFEF1FF08A888A8A31
:103FA0000B500824D96E000E0920DA6EDF50F00B9A
:103FB0000A6E0A380F0B0A6E0A5081108A6E8A9AAE
:103FC000420EE82EFED700D08150C00B8A6E0B50F7
:103FD000D8A4EDEF1FF0EFEF1FF0F2EF1FF08A987B
:103FE000F3EF1FF08A888A8A0B500824D96E000EDE
:103FF0000920DA6EDF500F0B0A6E0A5081108A6EAC
:104000008A9A420EE82EFED700D00B2A0B500824C5
:10401000D96E000E0920DA6EDF50D8A412EF20F01E
:1040200014EF20F0BFEF1FF01200000E0D6E09BE5E
:104030001EEF20F01CEF20F024EF20F0086C091E8A
:10404000D8B0092A010E0D6E0BBE2BEF20F029EF20
:1040500020F02FEF20F00A6C0B1ED8B00B2A0A506C
:104060000B10D8B436EF20F038EF20F05CEF20F0E2
:10407000010E0C6E40EF20F0D8900A360B360C2A59
:104080000BAE45EF20F047EF20F03CEF20F00A5058
:10409000085C0B500958D8A050EF20F052EF20F0E8
:1040A00056EF20F00A50085E0B50095AD8900B3298
:1040B0000A320C2E47EF20F00D50D8B462EF20F0FA
:1040C00064EF20F068EF20F0086C091ED8B0092AD0
:1040D00008C008F009C009F012000001E005D8A4EA
:1040E00074EF20F076EF20F089EF20F0060E546098
:1040F0007CEF20F07EEF20F089EF20F0800E54243A
:10410000D96EDA6A010EDA22DF50AD6E542AC4EF9E
:1041100020F05504D8A48FEF20F091EF20F0A3EF0A
:1041200020F0060E546097EF20F099EF20F0A3EFF7
:1041300020F0790E5424D96EDA6A010EDA22DF50AB
:10414000AD6E86EF20F0DF05D8A4A9EF20F0ABEF2D
:1041500020F0BDEF20F0120E5460B1EF20F0B3EF6D
:1041600020F0BDEF20F0660E5424D96EDA6A010EFD
:10417000DA22DF50AD6E86EF20F0000EE06F000E09
:10418000556E000E546E9D981200000E0814106EAD
:10419000000E0914116E800E0A14126E7F0E0B149D
:1041A000136E1050111012101310D8A4DAEF20F073
:1041B000DCEF20F0E4EF20F0000E086E000E096E38
:1041C000000E0A6E000E0B6E000E0C14106E000E28
:1041D0000D14116E800E0E14126E7F0E0F14136EDE
:1041E0001050111012101310D8A4F9EF20F0FBEFAB
:1041F00020F003EF21F0000E0C6E000E0D6E000E8D
:104200000E6E000E0F6E0C5008180FE10D500918BD
:104210000CE10E500A1809E10F500B18D8B413EF37
:1042200021F015EF21F018EF21F0D89019EF21F0CF
:10423000D88012006AEC1CF037EC19F00001DB05A5
:10424000D8A425EF21F027EF21F029EF21F0DCECB5
:104250001AF00001E005D8A430EF21F032EF21F090
:104260003CEF21F05450D8A438EF21F03AEF21F080
:104270003CEF21F0E7EC24F05504D8A442EF21F004
:1042800044EF21F04EEF21F05450D8A44AEF21F032
:104290004CEF21F04EEF21F0F2EC24F00001DF05AD
:1042A000D8A455EF21F057EF21F061EF21F05450E1
:1042B000D8A45DEF21F05FEF21F061EF21F0FDEC7C
:1042C00024F0CEEC24F01CEF21F052EF00F0AE0E03
:1042D000F66E450EF76E000EF86E01EE66F010EE0B
:1042E0005CF00900F5CFEEFFE550E150FAE1B60EC3
:1042F000F66E490EF76E000EF86E00EEE3F010EE6B
:1043000017F00900F5CFEEFFE550E150FAE11E0E7F
:10431000F66E4A0EF76E000EF86E0900F5CF56F0F5
:1043200001EE00F0660EEE6AE806FDE100EEB8F080
:104330002B0EEE6AE806FDE100EE4FF0070EEE6A86
:10434000E806FDE15790579200011AEF21F0ADEF1A
:1043500021F0084A092A0A4A0B2A0AC0D9FF0BC0D1
:10436000DAFF08C0E1FF09C0E2FFDE50E618D8A47A
:10437000BCEF21F0BEEF21F0CAEF21F008C0D9FF59
:1043800009C0DAFFDF50D8A4C8EF21F0CAEF21F04E
:10439000A9EF21F008C0D9FF09C0DAFFDF500C6E89
:1043A0000AC0D9FF0BC0DAFFDF500D6E0D500C5C58
:1043B000086E096AD8A009061200050EE82EFED77D
:1043C00000F0C282C2B2E7EF21F0E9EF21F0E2EFA4
:1043D00021F0C3CFCAF0C4CFCBF0C282C2B2F3EF98
:1043E00021F0F5EF21F0EEEF21F00001E105D8B466
:1043F000FCEF21F0FEEF21F004EF22F0C3CFCEF06E
:10440000C4CFCFF010EF22F0E105D8A40AEF22F0DC
:104410000CEF22F010EF22F0C3CFCCF0C4CFCDF0E0
:104420001200ABA416EF22F018EF22F01CEF22F0DE
:10443000AECFDDF044EF22F0ABA221EF22F023EF6C
:1044400022F027EF22F0AB98AB8844EF22F05C0E0D
:104450005324D96EDA6A010EDA22AECFDFFF5C0E8A
:104460005324D96EDA6A010EDA220A0EDE18D8B4A5
:104470003CEF22F03EEF22F041EF22F0532A44EFCE
:1044800022F0010E0001DB6F1200ACC04DF0ADC098
:104490004EF0000E0001C16F000EC06F63EF22F0FE
:1044A000AAC047F0ABC048F04D0E496E000E4A6EF0
:1044B000AEC04BF0AFC04CF042EC0EF047500001E4
:1044C000C0274850C1234DC0F6FF4EC0F7FF000E75
:1044D000F86E0800F5500009D8A471EF22F073EFD0
:1044E00022F050EF22F0C0C0AAF0C1C0ABF0120021
:1044F000BF0E106EFF0E116E0EC012F00FC013F043
:10450000105012261150132213500AE11A0E125C99
:10451000D8A08DEF22F090EF22F0010E91EF22F063
:10452000000E146E156A14501510D8B49AEF22F0CC
:104530009CEF22F0A3EF22F0200E0E100E6E0F5013
:104540000F6EA7EF22F00EC00EF00FC00FF012009A
:104550000AC00EF00BC00FF008C010F009C011F037
:104560000E500C6E0F500D6E0E4A0F2A0CC0F6FF47
:104570000DC0F7FF000EF86E10C0D9FF11C0DAFFB2
:10458000104A112A0F0EF76403D00800F55005D029
:10459000F6CFE1FFF7CFE2FFE750DF6EDF50D8A4A0
:1045A000D4EF22F0D6EF22F0B0EF22F01200543D0B
:1045B00030302E30433B2050543D302E3030560AA0
:1045C00000302E3030560A0030302E30430A00437F
:1045D0004F4E545F4F46460A00434F4E545F4F4E76
:1045E0000A0000504F540A00000000000054454DDE
:1045F000500A0000000000C050543D302E303056AC
:104600000080543D30302E304300B40E0101C26FA3
:10461000000EC36FB0C0C4F1B1C0C5F1000EC76FCA
:10462000000EC66F000EC96F000EC86FC40E0001E9
:10463000AA6F010EAB6FB2C0ACF0B3C0ADF0C20E4A
:10464000AE6F010EAF6F45EC22F00101C6510001C3
:10465000B025D96E0101C7510001B121DA6E000EFB
:10466000DF6E1200010E0E6E200E08180910D8B46D
:104670003CEF23F03EEF23F057EF23F0F70E0A6EE6
:10468000FF0E0B6E08C00CF009C00DF00A500C268E
:104690000B500D220D5009E1050E0C5CD8A053EF14
:1046A00023F055EF23F057EF23F0000E0E6E0EC0EF
:1046B00008F0096A1200D9CF02F0DACF03F09EAAFF
:1046C00064EF23F066EF23F06AEF23F011EC22F0A1
:1046D0005FEF23F09EA86FEF23F071EF23F07CEFE4
:1046E00023F09DA876EF23F078EF23F07CEF23F002
:1046F0006DEC20F05FEF23F003C0DAFF02C0D9FFBA
:1047000057921100A1A287EF23F089EF23F098EFD1
:1047100023F04BCF04F0800E0416010E046493EFD7
:1047200023F095EF23F098EF23F00001D42BA19212
:104730000001D451FE19D8A4A0EF23F0A2EF23F07A
:10474000A4EF23F0A6EC23F0B79012008CA8ABEFF7
:1047500023F0ADEF23F0B9EF23F08C980001E35183
:10476000FA27E451FB23E551FC23E651FD23C3EF77
:1047700023F08C880001E751FA27E851FB23E95127
:10478000FC23EA51FD23FCC0FEF0FBC04BFFFAC046
:104790004AFF1200000E331A000E341A000E351AAA
:1047A000800E361A2FC008F030C009F031C00AF070
:1047B00032C00BF033C00CF034C00DF035C00EF039
:1047C00036C00FF012EC11F008C02FF009C030F025
:1047D0000AC031F00BC032F01200000E176E000E4E
:1047E000166EFEEF23F015C008F0096A13C00AF038
:1047F00014C00BF0DAEC1DF0164A172A16501124DB
:10480000D96E17501220DA6EDF50156E1550D8A4ED
:104810000CEF24F00EEF24F0F3EF23F01200BF0EA4
:104820000A6EFF0E0B6E08C00CF009C00DF00A50A6
:104830000C260B500D220D500AE11A0E0C5CD8A06C
:1048400024EF24F027EF24F0010E28EF24F0000ECF
:10485000086E096A1200085009100A100B10D8B42B
:1048600034EF24F036EF24F03EEF24F0000E081A67
:10487000000E091A000E0A1A800E0B1A08C008F062
:1048800009C009F00AC00AF00BC00BF01200D00EEC
:104890000A6EFF0E0B6E08C00CF009C00DF00A5036
:1048A0000C260B500D220D500AE10A0E0C5CD8A00C
:1048B0005CEF24F05FEF24F0010E60EF24F0000EB7
:1048C000086E096A1200D59E0B0ED76EDC0ED66EEE
:1048D000562A030E56646FEF24F071EF24F076EF42
:1048E00024F0F294000E8C6E7EEF24F08C508C2419
:1048F0000001E26FE2C08CFFF294D58E120008C076
:104900000AF009C00BF087EF24F0084A092A08C012
:10491000D9FF09C0DAFFDF50D8A491EF24F093EF5C
:1049200024F085EF24F00A50085C086E0B500958FB
:10493000096E120008500A02F3CF0CF0F4CF0DF00C
:1049400008500B02F3500D2609500A02F3500D26B1
:104950000CC008F00DC009F01200140E086E000E15
:10496000096E12C00AF013C00BF0A8EC22F0140E6E
:10497000086E000E096EBBEC1FF012009EA0C3EF84
:1049800024F0C5EF24F0C6EF24F09E90420EBC2622
:104990000F0EBD2202EC1FF0A4921200B90E126E8F
:1049A000010E136EADEC24F0AF0E126E010E136EFD
:1049B000ADEC24F0120080EE3600801A06000030C4
:0D49C00001303030000000303030000000C9
:1049CE00800E5424D96EDA6A010EDA22DF50AD6EF3
:1049DE009D88542A1200790E5424D96EDA6A010E7B
:1049EE00DA22DF50AD6E9D88542A1200660E5424D2
:1049FE00D96EDA6A010EDA22DF50AD6E9D88542A26
:104A0E0012000001D42BA19212009E9012001200EF
:014A1E000196
:020000040020DA
:08000000FFFFFFFFFFFFFFFF00
:020000040030CA
:0E0000001D03727CF98B91FFFFC0FFE0FF40F3
:00000001FF
