:0400000019EF00F004
:100008003B829EA80AEF00F00CEF00F017EF00F01B
:100018009DA811EF00F013EF00F017EF00F0B2EC1D
:1000280000F005EF00F03B92110091EF01F0000E97
:10003800256E83502418030B3A6E3A50D8A427EF44
:1000480000F029EF00F03BEF00F06AEF00F0020E3D
:10005800246E58EF00F0030E246E58EF00F0010EE6
:10006800246E58EF00F0000E246E58EF00F0245074
:10007800366E376A3750000AD8B445EF00F058EFAB
:1000880000F03650000AD8B42BEF00F0010AD8B4BB
:1000980037EF00F0030AD8B42FEF00F0010AD8B404
:1000A80033EF00F058EF00F024503A183A6E3A5007
:1000B800D8A461EF00F063EF00F067EF00F0010EE5
:1000C800256E68EF00F025683AC024F01200280475
:1000D800D8A471EF00F073EF00F07AEF00F022C0BF
:1000E800ADFF9D88000E286EB1EF00F02550D8B402
:1000F80080EF00F082EF00F0B0EF00F092EF00F038
:10010800A90EAD6E9D88000E256EB1EF00F0AA0E07
:10011800AD6E9D88000E256EB1EF00F025C036F05B
:10012800376A36BE37063750000AD8B4A2EF00F057
:10013800FF0AD8B4A9EF00F0B1EF00F03650010A79
:10014800D8B484EF00F0B1EF00F03650FF0AD8B40D
:100158008BEF00F0B1EF00F09D9812002804D8A4AE
:10016800B8EF00F0BAEF00F0C1EF00F022C0ADFF29
:100178009D88000E286EF8EF00F02550D8B4C7EF20
:1001880000F0C9EF00F0F7EF00F0D9EF00F0A90E8A
:10019800AD6E9D88000E256EF8EF00F0AA0EAD6ECC
:1001A8009D88000E256EF8EF00F025C034F0356A02
:1001B80034BE35063550000AD8B4E9EF00F0FF0A1E
:1001C800D8B4F0EF00F0F8EF00F03450010AD8B4DA
:1001D800CBEF00F0F8EF00F03450FF0AD8B4D2EFBC
:1001E80000F0F8EF00F09D98120083CF38F0F00E81
:1001F8003816D8A402EF01F004EF01F006EF01F081
:100208003AEF01F03BEC01F08350F00B276E1DEF45
:1002180001F0A80E226E3AEF01F0AC0E226E3AEF12
:1002280001F0AE0E226E3AEF01F0AB0E226E3AEFFD
:1002380001F02750386E396A3950000AD8B427EFD0
:1002480001F03AEF01F03850100AD8B419EF01F074
:10025800300AD8B415EF01F0600AD8B411EF01F0F4
:10026800C00AD8B40DEF01F03AEF01F012005BEFCD
:1002780001F08350F00B276E2750D8B446EF01F0F9
:1002880048EF01F056EF01F0010E1FC036F020C014
:1002980037F0D8903636373636101F6E3750206E06
:1002A8005BEF01F0D8901F341F6E2034206E1F289A
:1002B80007E10F0E2018D8A464EF01F066EF01F0F3
:1002C8003DEF01F0000E206E000E1F6E1200290E89
:1002D800926E000E896E0F0E956E000E8C6E930E48
:1002E800946E000E8B6E000E966E8D80020ECD6E93
:1002F800200EAC6E100EAB6E400E656E0C0EAF6E1F
:10030800D08EF28CF28E9F909D809E90A592A382B3
:10031800A4929F889D98AB8E12006C0EF66E030E09
:10032800F76E000EF86E00EE2AF010EE0AF00900E3
:10033800F5CFEEFFE550E150FAE100EE01F0290EAD
:10034800EE6AE806FDE13B903B920001ACEF01F05C
:100358006BEC01F01BEC00F0F9EC00F0AEEF01F0F3
:0E03680019EF00F0A8ABACAE00A9AA00FF038D
:020000040020DA
:08000000FFFFFFFFFFFFFFFF00
:020000040030CA
:0E0000001D03727CF98B91FFFFC0FFE0FF40F3
:00000001FF
