:0400000031EF00F0EC
:0600080032824FEF08F008
:100018003280D8CF2FF0E8CF30F0E0CF31F0A4A273
:1000280018EF00F01AEF00F01EEF00F06AEC08F08D
:1000380013EF00F09EA023EF00F025EF00F029EF6A
:1000480000F087EC08F013EF00F031C0E0FF30C09B
:0E005800E8FF2FC0D8FF3290100034EF08F000
:1010000000409C00290E926E000E896E0F0E956EA8
:10101000000E8C6E930E946E000E8B6E000E966E0C
:101020008D80020ECD6E0A0EBB6EF80E0F012D17CD
:101030009C0EBD6E400EBC6E200EAC6E100EAB6EE4
:10104000400E656E0C0EAF6ED08EF28CF28E9F90BD
:101050009D809E90A592A382A4929F8A9D9A9E9A1B
:101060009F889D98AB8E1200040EF66E110EF76EDF
:10107000000EF86E00EE25F010EE0AF00900F5CF34
:10108000EEFFE550E150FAE100EE01F0240EEE6AC9
:10109000E806FDE13290329200017CEF08F09EAA52
:1010A00054EF08F056EF08F058EF08F04FEF08F053
:1010B0009EA85DEF08F05FEF08F068EF08F09DA8CC
:1010C00064EF08F066EF08F068EF08F04FEF08F003
:1010D000329211009EA06FEF08F071EF08F072EFEE
:1010E00008F09E90CD90000ECF6E000ECE6E245074
:1010F0000409246EA492120002EC08F0A80EAD6E52
:1011000031EF00F0A8ABACAE00A9AA00FF049E909E
:021110001200CB
:020000040020DA
:08000000FFFFFFFFFFFFFFFF00
:020000040030CA
:0E0000001D03727CF98B91FFFFC0FFE0FF40F3
:00000001FF
