:0600000000000EEF00F00D
:0400080004EF00F011
:100018000CEF00F004D88C7846EC00F0FCD7D890B0
:10002800D892D894190EE70F0B0E0F01956EF30EA8
:100038000F019A6EFE0E0F01926E000E0F01896E6F
:10004800000E0F01916E000E0F018C6E2FD88C8A56
:100058002DD88C9A8C8C2AD88C9C8C8E27D88C9EE8
:1000680012008980280E0001006E830E0001016EC7
:1000780043ED00F0D8940006FBE1899012000106D8
:10008800FEE113000A0E0001076E320E0001086E31
:1000980051ED00F00706FCE1130072ED00F089ED68
:1000A80000F035ED00F00806F8E11300200E00011D
:1000B800036EF80E0001046EA60E0001056E69EDD0
:1000C80000F0D8940306FBE1130004066FED00F07E
:1000D800FCE1000013000506FEE1130083B611D011
:1000E80000000AA61300050E0001026E35EC00F0B0
:1000F8000206FCE183B605D08C74000E00010A6E7E
:100108001300080E00010A6E13008350E844E84407
:06011800916E00001300CF
:020000040030CA
:070000001D036A00B98B919A
:06000800FFC0FFE0FF4015
:00000001FF
