:0600000000000EEF00F00D
:0400080004EF00F011
:100018000CEF00F009D88B7495D8AF0EE8CF02F03A
:10002800B8EC00F097D8F7D7C00E0F01936E000E0A
:100038000F018A6E000E0F01946E000E0F018B6E79
:10004800000E0F01966E000E0F018D6E000E0F014F
:10005800F26E080E0F01D56E630E0F01D76EC00E3B
:100068000F01D66EFA0E0001016ED58E10D872D827
:10007800010E0F01F76EB00E0F01F66E30D8010EAB
:100088000F01F76EB70E0F01F66E29D812000A0E8F
:100098000001006E5FD80006FDE18A98010E0F018D
:1000A800F76EA20E0F01F66E08008A6A8A8AF5506A
:1000B800F00BE83881108A6E8A9A4CD88A6A8A8A44
:1000C800F5500F0B81108A6E8A9A44D80B00F552AE
:1000D800ECE11200410E006E0006FEE112008A9863
:1000E8000800F55201E10B00F00E8A168A8AF550D5
:1000F800F00BE83881108A6E8A9AF00E8A168A8A7E
:10010800F5500F0B81108A6E8A9AE4DF8A880B00FB
:10011800F552EAE112008A98F00E8A168A8AEF50A0
:10012800F00BE83881108A6E8A9AF00E8A168A8A4D
:10013800EF500F0B81108A6E8A9ACCDF8A88EC50B8
:10014800EBE112008C98010604E1FA0E0001016E41
:100158008C881200F2A4FED7630E0F01D76EC00E72
:100168000F01D66EF2941200010E0F01F76EA90E60
:100178000F01F66EB4DF00EE0BF0E86A0232E836E3
:100188003009ED6EE9500308F8E100EE03F0C00E07
:100198000001036E0C6ABFDF1200333228010C061F
:1001A8000080425954453D008048656C6C6F00C022
:0701B800576F726C64210017
:020000040030CA
:070000001D036A00B98B919A
:06000800FFC0FFE0FF4015
:00000001FF
