:0600000000000EEF00F00D
:0400080004EF00F011
:100018000CEF00F008D8F2B47ED9BAB285D99EB0F8
:1000280087D9D2D8F8D7C00E0F01936E000E0F01F2
:100038008A6E000E0F01946E000E0F018B6E080E73
:100048000F01966E000E0F018D6E010E0001016EFC
:10005800000E0F01F26E050E0F01D56E0B0E0F018B
:10006800D76EDC0E0F01D66E000E0F019E6E120EBB
:100078000F01CD6E630E0F01CF6EC00E0F01CE6E55
:10008800000E0F01A16E060E0F01B16E630E0F0177
:10009800B36EC00E0F01B26E060E0F017B6EF00E2E
:1000A8000F017D6E600E0F017C6E5AD84FD8030E7B
:1000B8000F01F76EC90E0F01F66EFAD88D8AD58E2C
:1000C80078D88D9A8D8CD58E74D88D9C8D8ED58E42
:1000D80070D88D9E000E0F01F26E030E0F01D56EC3
:1000E8000B0E0F01D76EDC0E0F01D66ED58E8D88E4
:1000F800CD807B808B84030E0F01F76ED30E0F012A
:10010800F66ED6D8C00E0001026E500E0001036EC6
:10011800570E0001046E3D0E0001056E310E000100
:10012800066E2E0E0001076E300E0001086E300EAE
:100138000001096E6D0E00010A6E730E00010B6E50
:10014800000E00010C6E00EE02F01200A1A2FED714
:10015800630E0F01B36EC00E0F01B26EA1921200B2
:100168000A0E0001006EB180F1DF0006FDE18A98F9
:10017800030E0F01F76EC20E0F01F66E08008A6AB1
:100188008A8AF550F00BE83881108A6E8A9ADEDF89
:100198008A6A8A8AF5500F0B81108A6E8A9AD6DF8E
:1001A8000B00F552ECE11200410E006E0006FEE174
:1001B8001200F2A4FED7D59E0B0E0F01D76EDC0EEF
:1001C8000F01D66EF294120084B60FD000000DA66F
:1001D8001300B180AAEC00F084B607D08B94000E0F
:1001E80000010D6E06D860D81300080E00010D6ED0
:1001F8001300310E0001066E014601BC0AD001B29F
:1002080016D001B41FD001B628D001B831D001BA38
:100218003AD0F00E0F017D6E600E0F017C6E010E5C
:100228000001016EBA92300E0001086E39D0ED0E51
:100238000F017D6E400E0F017C6EBA92320E0001E6
:10024800086E2ED0EA0E0F017D6E200E0F017C6E17
:10025800BA92340E0001086E23D0E70E0F017D6EAE
:10026800000E0F017C6EBA92360E0001086E18D08F
:10027800E30E0F017D6EE00E0F017C6EBA92380E10
:100288000001086E0DD0E00E0F017D6EC00E0F014B
:100298007C6EBA92300E0001086E320E0001066EB6
:1002A8007B808B840C6A120000EE02F01DD81200CD
:1002B8008A980800F55201E10B00F00E8A168A8A26
:1002C800F550F00BE83881108A6E8A9AF00E8A167B
:1002D8008A8AF5500F0B81108A6E8A9A65DF8A88A0
:1002E8000B00F552EAE112008A98F00E8A168A8A03
:1002F800EF50F00BE83881108A6E8A9AF00E8A1651
:100308008A8AEF500F0B81108A6E8A9A4DDF8A888D
:10031800EC50EBE112008D780B0E0F01D76EDC0E5E
:100328000F01D66EF29412007B908B94BA92120051
:10033800630E0F01CF6EC00E0F01CE6E9E9001B0FE
:100348000AD001B210D001B416D001B61CD001B841
:1003580022D001BA28D0F00E0F017D6E600E0F0179
:100368007C6EBA9227D0ED0E0F017D6E400E0F0104
:100378007C6EBA921FD0EA0E0F017D6E200E0F011F
:100388007C6EBA9217D0E70E0F017D6E000E0F013A
:100398007C6EBA920FD0E30E0F017D6EE00E0F0156
:1003A8007C6EBA9207D0E00E0F017D6EC00E0F0171
:1003B8007C6EBA927B808B841200333228010C0643
:1003C80000804153454E3530363700C050573D31D7
:0603D8002E30306D7300B1
:020000040030CA
:070000001D036A00B98B919A
:06000800FFC0FFE0FF4015
:00000001FF
